:020000040800F2
:1000000000280020991B0008B1180008B718000844
:10001000BD180008C3180008C91800080000000037
:10002000000000000000000000000000CF180008E1
:10003000DB18000800000000E7180008F3180008AB
:10004000E11B0008E11B0008E11B0008E11B0008A0
:10005000E11B0008E11B0008E11B0008E11B000890
:10006000E11B0008E11B0008E11B0008E11B000880
:10007000E11B0008E11B0008E11B0008E11B000870
:10008000E11B0008E11B0008E11B0008E11B000860
:10009000E11B0008E11B0008E11B0008E11B000850
:1000A000E11B0008E11B0008E11B0008E11B000840
:1000B00001190008E11B000800000000E11B000816
:1000C000E11B00080000000000000000E11B000828
:1000D00000000000E11B0008E11B00080000000018
:1000E000E11B0008E11B0008E11B00080000000004
:1000F0000000000000000000000000000000000000
:0C01000000000000000000005FF808F1A3
:10010C0010B5054C237833B9044B13B10448AFF345
:10011C0000800123237010BD880000200000000027
:10012C002832000808B5034B1BB103490348AFF351
:10013C00008008BD000000008C0000202832000860
:10014C0080B400AF064B1B68012B04D1044B00227A
:10015C001A60012300E000231846BD4680BC70479E
:10016C00A400002080B400AF064B1B68012B04D107
:10017C00044B00221A60012300E000231846BD4600
:10018C0080BC7047A800002080B400AF064B1B68F1
:10019C00012B04D1044B00221A60012300E0002340
:1001AC001846BD4680BC7047AC00002080B582B0BC
:1001BC0000AF00237B60C9E0694A7B6852F82320BA
:1001CC0068497B6841F82320674A7B6852F82320F2
:1001DC0063497B6841F823207B68002B39D14FF4AD
:1001EC008071624801F0E2FF034619465E4A7B6863
:1001FC0042F823105B4A7B6852F8232058497B68ED
:10020C0051F823309A4224D1554A7B6852F8232066
:10021C0055497B6851F823309A421AD1544A7B686D
:10022C0052F8232050497B6851F823309A4210D061
:10023C004D4A7B6852F823204D497B6841F82320B6
:10024C00494A7B6852F82330002B02D1494B0122DA
:10025C001A607B68012B39D14FF40071434801F0CF
:10026C00A5FF03461946404A7B6842F823103D4AD5
:10027C007B6852F823203A497B6851F823309A4224
:10028C0024D1374A7B6852F8232037497B6851F8D0
:10029C0023309A421AD1364A7B6852F823203249CD
:1002AC007B6851F823309A4210D02F4A7B6852F861
:1002BC0023202F497B6841F823202B4A7B6852F876
:1002CC002330002B02D12C4B01221A607B68022BAD
:1002DC0039D14FF48061254801F068FF0346194677
:1002EC00214A7B6842F823101E4A7B6852F823206F
:1002FC001B497B6851F823309A4224D1184A7B68F9
:10030C0052F8232018497B6851F823309A421AD1AD
:10031C00174A7B6852F8232013497B6851F8233025
:10032C009A4210D0104A7B6852F8232010497B68FF
:10033C0041F823200C4A7B6852F82330002B02D161
:10034C000E4B01221A607B6801337B607B68022BA9
:10035C007FF732AF00BF00BF0837BD4680BD00BF7E
:10036C000C0000200000002018000020000C0140B0
:10037C0024000020A4000020A8000020AC000020D5
:10038C0080B582B000AF786000220121594801F09D
:10039C0024FF00220221574801F01FFF00220421F4
:1003AC00544801F01AFF00220821524801F015FFB1
:1003BC00002210214F4801F010FF002220214D484F
:1003CC0001F00BFF002240214A4801F006FF7B6838
:1003DC00092B00F2898001A252F823F011040008C5
:1003EC001D04000851040008670400087D0400087F
:1003FC009D040008B3040008BF040008F5040008BD
:10040C00E9040008012240213A4801F0E6FE6CE0C4
:10041C0001220121374801F0E0FE01220821354874
:10042C0001F0DBFE01221021324801F0D6FE012240
:10043C002021304801F0D1FE012240212D4801F04D
:10044C00CCFE52E0012204212A4801F0C6FE012212
:10045C002021284801F0C1FE47E001221021254847
:10046C0001F0BBFE01222021224801F0B6FE3CE047
:10047C00012201211F4801F0B0FE012208211D4874
:10048C0001F0ABFE012210211A4801F0A6FE2CE06F
:10049C0001220221174801F0A0FE0122102115486B
:1004AC0001F09BFE21E001220221124801F095FE91
:1004BC001BE0012208210F4801F08FFE01221021C0
:1004CC000C4801F08AFE012220210A4801F085FE29
:1004DC0001224021074801F080FE06E00122102194
:1004EC00044801F07AFE00E000BF00BF0837BD46AB
:1004FC0080BD00BF000C014080B582B000AF7860B9
:10050C0000221021644801F068FE00224FF40061C3
:10051C00614801F062FE00224FF480515E4801F008
:10052C005CFE00224FF400515B4801F056FE0022A5
:10053C004FF48041584801F050FE00224FF4004126
:10054C00554801F04AFE00228021544801F045FE36
:10055C007B68092B00F29A8001A252F823F000BFAD
:10056C0095050008A1050008DB050008F505000845
:10057C000F060008330600084D0600085B0600084D
:10058C00990600088B06000801228021434801F0DF
:10059C0024FE7CE0012210213F4801F01EFE0122C6
:1005AC004FF400513C4801F018FE01224FF48041F9
:1005BC00394801F012FE01224FF40041364801F097
:1005CC000CFE01228021354801F007FE5FE001227C
:1005DC004FF48051304801F000FE01224FF40041ED
:1005EC002D4801F0FAFD52E001224FF480412A48D7
:1005FC0001F0F3FD01224FF40041274801F0EDFD1D
:10060C0045E001221021244801F0E7FD01224FF4BE
:10061C000051214801F0E1FD01224FF480411E48B8
:10062C0001F0DBFD33E001224FF400611A4801F0C8
:10063C00D4FD01224FF48041174801F0CEFD26E095
:10064C0001224FF40061144801F0C7FD1FE00122A4
:10065C004FF40051104801F0C0FD01224FF48041CD
:10066C000D4801F0BAFD01224FF400410A4801F097
:10067C00B4FD01228021094801F0AFFD07E0012201
:10068C004FF48041044801F0A8FD00E000BF00BF1A
:10069C000837BD4680BD00BF00080140000C01407A
:1006AC0080B582B000AF78607B68002B03D07B688C
:1006BC00012B12D023E000224FF40041124801F02C
:1006CC008CFD01224FF480510F4801F086FD0F4B39
:1006DC001B681846FFF754FE11E001224FF400414D
:1006EC00094801F07AFD00224FF48051064801F0D0
:1006FC0074FD064B5B681846FFF742FE00BF00BF57
:10070C000837BD4680BD00BF000C0140240100200D
:10071C0080B582B000AF78607B68002B03D07B681B
:10072C00012B12D023E000224FF40051124801F0AB
:10073C0054FD01224FF480410F4801F04EFD0F4B48
:10074C001B681846FFF7D8FE11E001224FF4005148
:10075C00094801F042FD00224FF48041064801F0A7
:10076C003CFD064B5B681846FFF7C6FE00BF00BF9A
:10077C000837BD4680BD00BF000C01402C01002095
:10078C0080B500AF444B1B680B3B032B78D801A200
:10079C0052F823F0B1070008DF0700081908000819
:1007AC00530800083D4B1B68012B6BD13C4B1B685D
:1007BC005A1C3B490A601846FFF772FF384B1B68FE
:1007CC00022B02D1364B00221A60C82000F0AAFE80
:1007DC0058E0344B00221A60324B02225A602F4BE5
:1007EC001B68012B50D12E4B1B685A1C2C490A60DC
:1007FC001846FFF755FF2A4B1B68022B02D1284BDA
:10080C0000221A60C82000F08DFE3DE0254B00222E
:10081C001A60244B03225A60204B1B68012B35D1E4
:10082C001F4B1B685A1C1E490A601846FFF738FFFD
:10083C001B4B1B68022B02D1194B00221A60C820DB
:10084C0000F070FE22E0174B00221A60154B0422B8
:10085C005A60124B1B68012B1AD1114B1B685A1C86
:10086C000F490A601846FFF71BFF0D4B1B68022B44
:10087C0002D10B4B00221A60C82000F053FE07E097
:10088C0000BF06E000BF04E000BF02E000BF00E0D4
:10089C0000BF00BF80BD00BF30000020D40000208E
:1008AC00B40000202401002080B500AF1C4B1B6855
:1008BC000F2B02D0102B17D030E01A4B1B68012BDA
:1008CC0029D1194B1B685A1C17490A601846FFF7A7
:1008DC001FFF154B1B68022B02D1134B00221A6011
:1008EC00C82000F053FE16E00E4B1B68012B14D1F0
:1008FC000D4B1B685A1C0C490A601846FFF708FF81
:10090C00094B1B68022B02D1074B00221A60C8202E
:10091C0000F03CFE01E000BF00E000BF00BF80BD66
:10092C0034000020E4000020B800002080B500AFA7
:10093C00A14B1B68042B00F23D8101A252F823F05D
:10094C00610900086909000895090008470A0008B0
:10095C00F70A0008984B01221A602BE1974B0522ED
:10096C001A60974B09221A60964B0B221A60964B11
:10097C000F221A60FFF7E4FB0346012B40F01381B2
:10098C008D4B02221A600EE18C4B06221A608C4BA6
:10099C001E221A608B4B0C221A608B4B10221A6091
:1009AC00FFF7E0FB0346012B17D1884B1B68013383
:1009BC00864A1360864B1B680133854A1360834B50
:1009CC001B68632B02DD814B00221A60804B1B6875
:1009DC00632B02DD7E4B00221A607D4B1B687D4A27
:1009EC0082FB03129210DB17D31A7B4A1360784BED
:1009FC001968784B83FB01239A10CB17D21A134634
:100A0C009B0013445B00CA1A734B5A60FFF7BCFB84
:100A1C000346012B07D16D4B1B68704A13606C4B5E
:100A2C001B686F4A1360FFF78BFB0346012B40F0EA
:100A3C00BC80614B03221A60B7E0604B07221A603E
:100A4C005F4B1F221A605F4B0D221A605E4B102207
:100A5C001A60FFF787FB0346012B17D1614B1B680C
:100A6C000133604A1360604B1B6801335E4A1360AC
:100A7C005C4B1B68632B02DD5A4B00221A605A4BED
:100A8C001B68632B02DD584B00221A60564B1B6807
:100A9C00504A82FB03129210DB17D31A4E4A136092
:100AAC00514B19684B4B83FB01239A10CB17D21A6D
:100ABC0013469B0013445B00CA1A474B5A60FFF75E
:100ACC0063FB0346012B07D1464B1B68474A136057
:100ADC00454B1B68464A1360FFF732FB0346012B5C
:100AEC0065D1354B04221A6061E0344B08221A6040
:100AFC00334B20221A60334B0E221A60324B1022D9
:100B0C001A60FFF72FFB0346012B17D1394B1B68DB
:100B1C000133384A1360384B1B680133364A136073
:100B2C00344B1B68632B02DD324B00221A60324BB4
:100B3C001B68632B02DD304B00221A602E4B1B68A6
:100B4C00244A82FB03129210DB17D31A224A136039
:100B5C00294B19681F4B83FB01239A10CB17D21A10
:100B6C0013469B0013445B00CA1A1B4B5A60FFF7D9
:100B7C000BFB0346012B07D11E4B1B681F4A13604E
:100B8C001D4B1B681E4A1360FFF7DAFA0346012B54
:100B9C000FD11C4B13221A601B4B17221A60064BE9
:100BAC0000221A6005E000BF04E000BF02E000BFB5
:100BBC0000E000BF00BF80BDB0000020400000205E
:100BCC0044000020300000203400002048000020A9
:100BDC0068000020676666662C0100205400002027
:100BEC007400002050000020640000205C000020F5
:100BFC00700000204C0000206000002058000020F5
:100C0C006C000020380000203C00002080B500AFB4
:100C1C00854B1B68133B032B00F2FD8001A252F89D
:100C2C0023F000BF410C00086B0C0008FF0C0008FF
:100C3C00910D00087C4B14221A607C4B1B684FF4FE
:100C4C007A7202FB03F37A4A1360794B1B681846DD
:100C5C0000F01AFC4FF47A7000F04AFCE2E000F06D
:100C6C0059FE744B1B68744A82FB03129210DB17FB
:100C7C00D31A724A13606F4B19686F4B83FB0123B5
:100C8C009A10CB17D21A13469B0013445B00CA1A56
:100C9C006A4B5A606A4B1B68012B10D1654B1B6861
:100CAC00013B644A1360634B1B68002B03DC5F4BF6
:100CBC001B68604A13604FF47A7000F019FC614BAA
:100CCC001B68012B40F0A980574B15221A605E4B14
:100CDC001B684FF47A7202FB03F3554A5360544B72
:100CEC005B68184600F0D0FB4FF47A7000F000FC03
:100CFC0093E000F025FE554B1B684F4A82FB031214
:100D0C009210DB17D31A4D4A1360504B19684A4B9B
:100D1C0083FB01239A10CB17D21A13469B00134462
:100D2C005B00CA1A454B5A60454B1B68012B10D10E
:100D3C00464B1B68013B454A1360444B1B68002B18
:100D4C0003D1414B1B68414A13604FF47A7000F099
:100D5C00CFFB3C4B1B68012B61D1334B16221A6025
:100D6C003B4B1B684FF47A7202FB03F3304A9360DF
:100D7C002F4B9B68184600F087FB4FF47A7000F0FD
:100D8C00B7FB4CE000F0F2FD324B1B682A4A82FBA9
:100D9C0003129210DB17D31A284A13602D4B1968D3
:100DAC00254B83FB01239A10CB17D21A13469B00B9
:100DBC0013445B00CA1A214B5A60214B1B68012B50
:100DCC0010D1244B1B68013B224A1360214B1B683A
:100DDC00002B03D11E4B1B681E4A13604FF47A7014
:100DEC0000F086FB174B1B68012B1AD10E4B1422FB
:100DFC001A600E4B1B684FF47A7202FB03F30C4A19
:100E0C0013600B4B1B68184600F03EFB4FF47A70D6
:100E1C0000F06EFB05E000BF04E000BF02E000BF85
:100E2C0000E000BF00BF80BD38000020480000205B
:100E3C000C01002054000020676666662401002027
:100E4C00CC000020BC0000204C00002058000020EA
:100E5C00500000205C00002080B500AF854B1B6863
:100E6C00173B032B00F2FD8001A252F823F000BFC8
:100E7C008D0E0008DD0F0008B70E00084B0F0008A0
:100E8C007C4B19221A607C4B1B684FF47A7202FB64
:100E9C0003F37A4A1360794B1B68184600F00EFB7B
:100EAC004FF47A7000F058FBE2E000F08DFD744BCB
:100EBC001B68744A82FB03129210DB17D31A724A16
:100ECC0013606F4B19686F4B83FB01239A10CB1780
:100EDC00D21A13469B0013445B00CA1A6A4B5A6021
:100EEC006A4B1B68012B10D1654B1B68013B644A94
:100EFC001360634B1B68002B03D15F4B1B68604A6C
:100F0C0013604FF47A7000F027FB614B1B68012BC8
:100F1C0040F0A980574B1A221A605E4B1B684FF4A5
:100F2C007A7202FB03F3554A5360544B5B681846C4
:100F3C0000F0C4FA4FF47A7000F00EFB93E000F06E
:100F4C005BFD554B1B684F4A82FB03129210DB175B
:100F5C00D31A4D4A1360504B19684A4B83FB01233B
:100F6C009A10CB17D21A13469B0013445B00CA1A73
:100F7C00454B5A60454B1B68012B10D1464B1B68E7
:100F8C00013B454A1360444B1B68002B03D1414B7A
:100F9C001B68414A13604FF47A7000F0DDFA3C4B49
:100FAC001B68012B61D1334B18221A603B4B1B6819
:100FBC004FF47A7202FB03F3304A93602F4B9B6819
:100FCC00184600F07BFA4FF47A7000F0C5FA4CE04A
:100FDC0000F0E2FC324B1B682A4A82FB031292108F
:100FEC00DB17D31A284A13602D4B1968254B83FB4A
:100FFC0001239A10CB17D21A13469B0013445B00A3
:10100C00CA1A214B5A60214B1B68012B10D1244B5F
:10101C001B68013B224A1360214B1B68002B03D138
:10102C001E4B1B681E4A13604FF47A7000F094FA42
:10103C00174B1B68012B1AD10E4B19221A600E4B41
:10104C001B684FF47A7202FB03F30C4A13600B4BD0
:10105C001B68184600F032FA4FF47A7000F07CFAF4
:10106C0005E000BF04E000BF02E000BF00E000BFED
:10107C0000BF80BD3C000020600000201801002053
:10108C006C000020676666662C010020DC000020E6
:10109C00C4000020640000207000002068000020C4
:1010AC007400002080B500AF214B1B68053B032B5F
:1010BC0034D801A252F823F0D5100008DB10000838
:1010CC00F51000080F110008FFF7A0FD2DE000F04F
:1010DC00F7FC184B1B68012B22D100F0AFFC4FF42E
:1010EC00FA7000F087FA1BE000F0FAFC114B1B6859
:1010FC00012B17D100F0B6FC4FF4FA7000F07AFA1D
:10110C0010E000F0FDFC0B4B1B68012B0CD100F028
:10111C009FFC4FF4FA7000F06DFA05E000BF04E09C
:10112C0000BF02E000BF00E000BF00BF80BD00BFF9
:10113C0040000020F400002080B500AF354B1B6848
:10114C00093B172B5CD801A252F823F0B911000807
:10115C000D1200080D1200080D1200080D120008E7
:10116C000D1200080D1200080D1200080D120008D7
:10117C000D1200080D1200080D1200080D120008C7
:10118C000D1200080D1200080D1200080D120008B7
:10119C000D1200080D1200080D1200080D120008A7
:1011AC00BF110008D9110008F3110008FFF754FE15
:1011BC002DE000F0B5FC184B1B68012B22D100F080
:1011CC005BFC4FF4FA7000F0FBF91BE000F0BAFC8A
:1011DC00114B1B68012B17D100F066FC4FF4FA7011
:1011EC0000F0EEF910E000F0BFFC0B4B1B68012B7C
:1011FC000CD100F04DFC4FF4FA7000F0E1F905E071
:10120C0000BF04E000BF02E000BF00E000BF00BF71
:10121C0080BD00BF44000020EC00002080B500AF72
:10122C0000F0DAFC00F032F800F0B8F800F06AF8E0
:10123C00144801F02FFC0A2000F074F90A2000F089
:10124C00A5F94FF4FA7000F0BBF94FF4FA7000F006
:10125C00D1F94FF4FA7000F0E7F90B4B1B68012B36
:10126C0005D100F0E1FB4FF4FA7000F0DDF9FFF767
:10127C005DFBFFF719FBFFF783FAFFF75DFFFFF745
:10128C0011FFEAE7340100200401002080B590B082
:10129C0000AF07F1180328220021184601F0B6FF11
:1012AC003B1D00221A605A609A60DA601A610223B0
:1012BC00BB610123BB621023FB6200237B6307F13C
:1012CC001803184600F0BAFF0346002B01D000F0BB
:1012DC00D5F80F237B600023BB600023FB60002349
:1012EC003B6100237B613B1D0021184601F026FA6F
:1012FC000346002B01D000F0C1F800BF4037BD46BB
:10130C0080BD000080B586B000AF07F10803002255
:10131C001A605A609A60DA603B4600221A605A6082
:10132C001D4B4FF080421A601B4B41F63F725A60C6
:10133C00194B00229A60184B0922DA60164B0022D6
:10134C001A61154B00229A61134801F053FB0346B6
:10135C00002B01D000F092F84FF48053BB6007F1E2
:10136C00080319460C4801F0E9FC0346002B01D098
:10137C0000F084F800233B6000237B603B46194659
:10138C00054801F0B5FE0346002B01D000F076F8BD
:10139C0000BF1837BD4680BD3401002080B586B033
:1013AC0000AF07F1080300221A605A609A60DA60F5
:1013BC00294B9B69284A43F004039361264B9B6994
:1013CC0003F004037B607B68234B9B69224A43F048
:1013DC0008039361204B9B6903F008033B603B6857
:1013EC0000224FF6F8711D4800F0F7FE00224FF274
:1013FC00FF011B4800F0F1FE4FF6F873BB600123B0
:10140C00FB6000233B6102237B6107F10803194653
:10141C00124800F051FD4FF2FF03BB600123FB604B
:10142C0000233B6102237B6107F1080319460C483A
:10143C0000F042FD4FF4E063BB600023FB6001232E
:10144C003B6107F108031946054800F035FD00BF64
:10145C001837BD4680BD00BF001002400008014097
:10146C00000C014080B582B000AF786000F0F6F857
:10147C00FEF79CFE00BF0837BD4680BD80B400AFB0
:10148C0072B600BFFEE7000080B483B000AF786096
:10149C00074B1B687A6892FBF3F3064A1360064B02
:1014AC0000221A6000BF0C37BD4680BC704700BFDD
:1014BC0078000020C0000020BC00002080B483B065
:1014CC0000AF7860074B1B687A6892FBF3F3064A0F
:1014DC001360064B00221A6000BF0C37BD4680BC5F
:1014EC00704700BF78000020C8000020C400002016
:1014FC0080B483B000AF7860074B1B687A6892FBAE
:10150C00F3F3064A1360064B00221A6000BF0C3737
:10151C00BD4680BC704700BF78000020D000002082
:10152C00CC00002080B483B000AF7860074B1B6800
:10153C007A6892FBF3F3064A1360064B00221A609A
:10154C0000BF0C37BD4680BC704700BF7800002040
:10155C00D8000020D400002080B483B000AF7860A5
:10156C00074B1B687A6892FBF3F3064A1360064B31
:10157C0000221A6000BF0C37BD4680BC704700BF0C
:10158C0078000020E0000020DC00002080B483B054
:10159C0000AF7860074B1B687A6892FBF3F3064A3E
:1015AC001360064B00221A6000BF0C37BD4680BC8E
:1015BC00704700BF78000020E8000020E400002005
:1015CC0080B483B000AF7860074B1B687A6892FBDD
:1015DC00F3F3064A1360064B00221A6000BF0C3767
:1015EC00BD4680BC704700BF78000020F000002092
:1015FC00EC00002080B483B000AF7860074B1B6810
:10160C007A6892FBF3F3064A1360064B00221A60C9
:10161C0000BF0C37BD4680BC704700BF780000206F
:10162C00F8000020F400002080B483B000AF786094
:10163C00074B1B687A6892FBF3F3064A1360064B60
:10164C0000221A6000BF0C37BD4680BC704700BF3B
:10165C0078000020080100200401002080B400AFB5
:10166C00514B1B68002B04DD4F4B1B68013B4E4A52
:10167C0013604D4B1B68002B02D14C4B01221A609E
:10168C004B4B1B68002B04DD494B1B68013B484A44
:10169C001360474B1B68002B02D1464B01221A608A
:1016AC00454B1B68002B04DD434B1B68013B424A36
:1016BC001360414B1B68002B02D1404B01221A6076
:1016CC003F4B1B68002B04DD3D4B1B68013B3C4A28
:1016DC0013603B4B1B68002B02D13A4B01221A6062
:1016EC00394B1B68002B04DD374B1B68013B364A1A
:1016FC001360354B1B68002B02D1344B01221A604E
:10170C00334B1B68002B04DD314B1B68013B304A0B
:10171C0013602F4B1B68002B02D12E4B01221A6039
:10172C002D4B1B68002B04DD2B4B1B68013B2A4AFD
:10173C001360294B1B68002B02D1284B01221A6025
:10174C00274B1B68002B04DD254B1B68013B244AEF
:10175C001360234B1B68002B02D1224B01221A6011
:10176C00214B1B68002B04DD1F4B1B68013B1E4AE1
:10177C0013601D4B1B68002B02D11C4B01221A60FD
:10178C001B4B1B68002B04DD194B1B68013B184AD3
:10179C001360174B1B68002B02D1164B01221A60E9
:1017AC0000BFBD4680BC7047C0000020BC000020BC
:1017BC00C8000020C4000020D0000020CC00002075
:1017CC00D8000020D4000020E0000020DC00002025
:1017DC00E8000020E4000020F0000020EC000020D5
:1017EC00F8000020F400002000010020FC00002084
:1017FC00080100200401002080B485B000AF154B17
:10180C009B69144A43F001039361124B9B6903F0EB
:10181C000103BB60BB680F4BDB690E4A43F080537E
:10182C00D3610C4BDB6903F080537B607B680A4B04
:10183C005B68FB60FB6823F0E063FB60FB6843F0D4
:10184C008063FB60044AFB68536000BF1437BD46DD
:10185C0080BC7047001002400000014080B584B08D
:10186C0000AF78607B681B68B3F1804F13D10C4BD1
:10187C00DB690B4A43F00103D361094BDB6903F0CD
:10188C000103FB60FB68002200211C2000F0DDFA44
:10189C001C2000F0F6FA00BF1037BD4680BD00BF1B
:1018AC000010024080B400AFFEE780B400AFFEE74A
:1018BC0080B400AFFEE780B400AFFEE780B400AFA9
:1018CC00FEE780B400AF00BFBD4680BC704780B45B
:1018DC0000AF00BFBD4680BC704780B400AF00BFF6
:1018EC00BD4680BC704780B500AF00F0BBF900BFAF
:1018FC0080BD000080B500AF024801F017F900BFB1
:10190C0080BD00BF3401002080B400AF00BFBD46D5
:10191C0080BC704780B500AF01222021074800F041
:10192C005CFC00228021054800F057FC002240217D
:10193C00024800F052FC00BF80BD00BF000801400F
:10194C0080B500AF00222021074800F046FC0022A1
:10195C008021054800F041FC01224021024800F0A2
:10196C003CFC00BF80BD00BF0008014080B500AF4B
:10197C0000222021074800F030FC0122802105487C
:10198C0000F02BFC00224021024800F026FC00BF96
:10199C0080BD00BF0008014080B500AF01224FF4AC
:1019AC008071084800F019FC00224FF48061054852
:1019BC0000F013FC00224FF40071024800F00DFC03
:1019CC0000BF80BD0008014080B500AF00224FF47D
:1019DC008071084800F001FC00224FF4806105483A
:1019EC0000F0FBFB01224FF40071024800F0F5FB04
:1019FC0000BF80BD0008014080B500AF00224FF44D
:101A0C008071084800F0E9FB01224FF48061054821
:101A1C0000F0E3FB00224FF40071024800F0DDFB04
:101A2C0000BF80BD0008014080B500AF082102480E
:101A3C0000F0EBFB00BF80BD0008014080B500AF9B
:101A4C002021024800F0E1FB00BF80BD00080140EE
:101A5C0080B500AF4021024800F0D7FB00BF80BD2D
:101A6C000008014080B500AF8021024800F0CDFB9A
:101A7C0000BF80BD0008014080B500AF4FF48071FD
:101A8C00024800F0C2FB00BF80BD00BF000801404F
:101A9C0080B500AF4FF40071024800F0B6FB00BFF8
:101AAC0080BD00BF0008014080B500AF4FF48061DD
:101ABC00024800F0AAFB00BF80BD00BF0008014037
:101ACC0080B500AF00228021044800F086FB002284
:101ADC004021024800F081FB00BF80BD000801409E
:101AEC0080B500AF00222021044800F076FB0022D4
:101AFC004021024800F071FB00BF80BD000801408E
:101B0C0080B500AF00222021044800F066FB0022C3
:101B1C008021024800F061FB00BF80BD000801403D
:101B2C0080B500AF00224FF48061054800F055FBF2
:101B3C0000224FF40071024800F04FFB00BF80BD43
:101B4C000008014080B500AF00224FF480710548B9
:101B5C0000F043FB00224FF40071024800F03DFB03
:101B6C0000BF80BD0008014080B500AF00224FF4DB
:101B7C008071054800F031FB00224FF4806102486F
:101B8C0000F02BFB00BF80BD00080140FFF7BCFE3E
:101B9C000B480C490C4A002302E0D458C4500433BF
:101BAC00C4188C42F9D3094A094C002301E0136094
:101BBC000432A242FBD301F005FBFFF72FFB704769
:101BCC0000000020880000206C32000888000020F3
:101BDC0080010020FEE7000080B500AF084B1B68B9
:101BEC00074A43F010031360032000F023F90F2081
:101BFC0000F008F8FFF700FE0023184680BD00BF78
:101C0C000020024080B582B000AF7860124B1A6899
:101C1C00124B1B7819464FF47A73B3FBF1F3B2FBFA
:101C2C00F3F3184600F03BF90346002B01D00123D7
:101C3C000EE07B680F2B0AD8002279684FF0FF303A
:101C4C0000F003F9064A7B681360002300E00123CF
:101C5C0018460837BD4680BD7C000020840000205B
:101C6C008000002080B400AF054B1B781A46054B52
:101C7C001B681344034A136000BFBD4680BC704709
:101C8C00840000207C01002080B400AF024B1B6854
:101C9C001846BD4680BC70477C01002080B485B0DE
:101CAC0000AF78607B6803F00703FB600C4BDB68CC
:101CBC00BB60BA684FF6FF031340BB60FB681A02A7
:101CCC00BB68134343F0BF6343F40033BB60044A67
:101CDC00BB68D36000BF1437BD4680BC704700BFE3
:101CEC0000ED00E080B400AF044BDB681B0A03F08E
:101CFC0007031846BD4680BC704700BF00ED00E0EE
:101D0C0080B483B000AF0346FB7197F90730002B0A
:101D1C000BDBFB7903F01F02064997F907305B09CF
:101D2C00012000FA02F241F8232000BF0C37BD4617
:101D3C0080BC704700E100E080B483B000AF034684
:101D4C003960FB7197F90730002B0ADB3B68DAB27C
:101D5C000C4997F907301201D2B20B4483F80023D7
:101D6C000AE03B68DAB20849FB7903F00F03043B45
:101D7C001201D2B20B441A7600BF0C37BD4680BCA0
:101D8C00704700BF00E100E000ED00E080B489B0D6
:101D9C0000AFF860B9607A60FB6803F00703FB6181
:101DAC00FB69C3F10703042B28BF0423BB61FB6948
:101DBC000433062B02D9FB69033B00E000237B6153
:101DCC004FF0FF32BB6902FA03F3DA43BB681A40E7
:101DDC007B699A404FF0FF317B6901FA03F3D943D9
:101DEC007B680B40134318462437BD4680BC7047B4
:101DFC0080B582B000AF78607B68013BB3F1807F27
:101E0C0001D301230FE00A4A7B68013B53600F2189
:101E1C004FF0FF30FFF790FF054B00229A60044B08
:101E2C0007221A60002318460837BD4680BD00BF44
:101E3C0010E000E080B582B000AF78607868FFF702
:101E4C002DFF00BF0837BD4680BD80B586B000AF02
:101E5C000346B9607A60FB7300237B61FFF742FF96
:101E6C0078617A68B9687869FFF790FF024697F94C
:101E7C000F3011461846FFF75FFF00BF1837BD46FD
:101E8C0080BD80B582B000AF0346FB7197F9073077
:101E9C001846FFF735FF00BF0837BD4680BD80B53B
:101EAC0082B000AF78607868FFF7A2FF034618464F
:101EBC000837BD4680BD000080B48BB000AF7860A1
:101ECC00396000237B6200233B6248E101227B6A7C
:101EDC0002FA03F3FB613B681B68FA691340BB61B0
:101EEC00BA69FB699A4240F037813B685B68A34A48
:101EFC0093425ED0A14A934275D8A14A934258D0DE
:101F0C009F4A93426FD89F4A934252D09D4A934224
:101F1C0069D89D4A93424CD09B4A934263D89B4AC2
:101F2C00934246D0994A93425DD8122B2AD8122B51
:101F3C0059D801A252F823F0BF1F0008991F0008BE
:101F4C00AB1F0008ED1F0008F31F0008F31F00086B
:101F5C00F31F0008F31F0008F31F0008F31F00080D
:101F6C00F31F0008F31F0008F31F0008F31F0008FD
:101F7C00F31F0008F31F0008F31F0008A11F00083F
:101F8C00B51F0008824A934213D02CE03B68DB68F3
:101F9C003B6229E03B68DB6804333B6224E03B682E
:101FAC00DB6808333B621FE03B68DB680C333B6249
:101FBC001AE03B689B68002B02D104233B6213E0C0
:101FCC003B689B68012B05D108233B627B68FA694F
:101FDC001A6109E008233B627B68FA695A6103E0E5
:101FEC0000233B6200E000BFBB69FF2B01D87B687C
:101FFC0001E07B6804337B61BB69FF2B02D87B6AF1
:10200C009B0002E07B6A083B9B003B617B691A6882
:10201C000F213B6901FA03F3DB431A40396A3B6930
:10202C0001FA03F31A437B691A603B685B6803F09F
:10203C008053002B00F09080564B9B69554A43F01F
:10204C0001039361534B9B6903F00103BB60BB68B5
:10205C00514A7B6A9B08023352F82330FB607B6A3F
:10206C0003F003039B000F2202FA03F3DB43FA682D
:10207C001340FB607B68494A93420DD07B68484A09
:10208C00934207D07B68474A934201D1022304E074
:10209C00032302E0012300E000237A6A02F003022A
:1020AC0092009340FA681343FB603B497B6A9B08A0
:1020BC000233FA6841F823203B685B6803F4801311
:1020CC00002B06D0384B9A683749BB6913438B6099
:1020DC0006E0354B9A68BB69DB43334913408B6090
:1020EC003B685B6803F40013002B06D02E4BDA68B8
:1020FC002D49BB691343CB6006E02B4BDA68BB69F7
:10210C00DB4329491340CB603B685B6803F4003325
:10211C00002B06D0244B5A682349BB6913434B60F0
:10212C0006E0214B5A68BB69DB431F4913404B60E7
:10213C003B685B6803F48033002B06D01A4B1A689B
:10214C001949BB6913430B6006E0174B1A68BB694E
:10215C00DB43154913400B607B6A01337B623B68A0
:10216C001A687B6A22FA03F3002B7FF4AFAE00BF30
:10217C0000BF2C37BD4680BC704700BF000032103A
:10218C00000031100000221000002110000012107D
:10219C000000111000100240000001400008014036
:1021AC00000C0140001001400004014080B485B0D7
:1021BC0000AF78600B467B807B689A687B88134005
:1021CC00002B02D00123FB7301E00023FB73FB7B8C
:1021DC0018461437BD4680BC704780B483B000AF3E
:1021EC0078600B467B8013467B707B78002B03D08A
:1021FC007A887B681A6103E07B881A047B681A6111
:10220C0000BF0C37BD4680BC704780B485B000AFB2
:10221C0078600B467B807B68DB68FB607A88FB68A8
:10222C0013401A04FB68D9437B880B401A437B6824
:10223C001A6100BF1437BD4680BC704780B586B0AC
:10224C0000AF78607B68002B01D101236CE27B68C6
:10225C001B6803F00103002B00F08780924B5B6836
:10226C0003F00C03042B0CD08F4B5B6803F00C03B6
:10227C00082B12D18C4B5B6803F48033B3F5803F91
:10228C000BD1894B1B6803F40033002B6CD07B689B
:10229C005B68002B68D1012346E27B685B68B3F571
:1022AC00803F06D1804B1B687F4A43F48033136018
:1022BC002EE07B685B68002B0CD17B4B1B687A4A49
:1022CC0023F480331360784B1B68774A23F4802304
:1022DC0013601DE07B685B68B3F5A02F0CD1724BCB
:1022EC001B68714A43F4802313606F4B1B686E4A62
:1022FC0043F4803313600BE06B4B1B686A4A23F486
:10230C0080331360684B1B68674A23F48023136087
:10231C007B685B68002B13D0FFF7B6FC386108E0D4
:10232C00FFF7B2FC02463B69D31A642B01D9032395
:10233C00FAE15D4B1B6803F40033002BF0D014E082
:10234C00FFF7A2FC386108E0FFF79EFC02463B69F0
:10235C00D31A642B01D90323E6E1534B1B6803F416
:10236C000033002BF0D100E000BF7B681B6803F04A
:10237C000203002B63D04C4B5B6803F00C03002B67
:10238C000BD0494B5B6803F00C03082B1CD1464B5C
:10239C005B6803F48033002B16D1434B1B6803F0AE
:1023AC000203002B05D07B681B69012B01D0012394
:1023BC00BAE13D4B1B6823F0F8027B685B69DB00DC
:1023CC00394913430B603AE07B681B69002B20D022
:1023DC00364B01221A60FFF757FC386108E0FFF713
:1023EC0053FC02463B69D31A022B01D903239BE110
:1023FC002D4B1B6803F00203002BF0D02A4B1B68FB
:10240C0023F0F8027B685B69DB00274913430B6000
:10241C0015E0264B00221A60FFF736FC386108E005
:10242C00FFF732FC02463B69D31A022B01D9032376
:10243C007AE11D4B1B6803F00203002BF0D17B6883
:10244C001B6803F00803002B3AD07B689B69002BB8
:10245C0019D0174B01221A60FFF716FC386108E0FF
:10246C00FFF712FC02463B69D31A022B01D9032356
:10247C005AE10D4B5B6A03F00203002BF0D00120F4
:10248C0000F09AFA1CE00A4B00221A60FFF7FCFBE2
:10249C0038610FE0FFF7F8FB02463B69D31A022BB9
:1024AC0008D9032340E100BF001002400000424263
:1024BC00800442429E4B5B6A03F00203002BE9D17D
:1024CC007B681B6803F00403002B00F0A68000233C
:1024DC00FB75974BDB6903F08053002B0DD1944BAC
:1024EC00DB69934A43F08053D361914BDB6903F072
:1024FC008053BB60BB680123FB758E4B1B6803F4D8
:10250C008073002B18D18B4B1B688A4A43F4807361
:10251C001360FFF7B9FB386108E0FFF7B5FB024623
:10252C003B69D31A642B01D90323FDE0814B1B6853
:10253C0003F48073002BF0D07B68DB68012B06D191
:10254C007B4B1B6A7A4A43F0010313622DE07B68D4
:10255C00DB68002B0CD1764B1B6A754A23F0010308
:10256C001362734B1B6A724A23F0040313621CE060
:10257C007B68DB68052B0CD16D4B1B6A6C4A43F0F6
:10258C00040313626A4B1B6A694A43F0010313622A
:10259C000BE0674B1B6A664A23F001031362644B22
:1025AC001B6A634A23F0040313627B68DB68002B0D
:1025BC0015D0FFF769FB38610AE0FFF765FB0246AF
:1025CC003B69D31A41F28832934201D90323ABE021
:1025DC00574B1B6A03F00203002BEED014E0FFF7FD
:1025EC0053FB38610AE0FFF74FFB02463B69D31AF5
:1025FC0041F28832934201D9032395E04C4B1B6A7C
:10260C0003F00203002BEED1FB7D012B05D1484BCF
:10261C00DB69474A23F08053D3617B68DB69002B6D
:10262C0000F08180424B5B6803F00C03082B61D0F7
:10263C007B68DB69022B46D13F4B00221A60FFF707
:10264C0023FB386108E0FFF71FFB02463B69D31AF6
:10265C00022B01D9032367E0354B1B6803F0007391
:10266C00002BF0D17B681B6AB3F5803F08D1304B4F
:10267C005B6823F400327B689B682D4913434B60E5
:10268C002B4B5B6823F474127B68196A7B685B6A5A
:10269C000B43274913434B60274B01221A60FFF76A
:1026AC00F3FA386108E0FFF7EFFA02463B69D31AF8
:1026BC00022B01D9032337E01D4B1B6803F0007379
:1026CC00002BF0D02FE01C4B00221A60FFF7DCFA35
:1026DC00386108E0FFF7D8FA02463B69D31A022B9F
:1026EC0001D9032320E0124B1B6803F00073002B6D
:1026FC00F0D118E07B68DB69012B01D1012313E0D9
:10270C000B4B5B68FB60FB6803F480327B681B6AD5
:10271C009A4206D1FB6803F470127B685B6A9A429A
:10272C0001D0012300E0002318461837BD4680BDB8
:10273C0000100240007000406000424280B584B03E
:10274C0000AF786039607B68002B01D10123D0E0A9
:10275C006A4B1B6803F007033A689A4210D9674B1F
:10276C001B6823F0070265493B6813430B60634BFE
:10277C001B6803F007033A689A4201D00123B8E0C2
:10278C007B681B6803F00203002B20D07B681B685E
:10279C0003F00403002B05D0594B5B68584A43F4F3
:1027AC00E06353607B681B6803F00803002B05D0C3
:1027BC00534B5B68524A43F460535360504B5B6815
:1027CC0023F0F0027B689B684D4913434B607B6898
:1027DC001B6803F00103002B40D07B685B68012B66
:1027EC0007D1474B1B6803F40033002B15D1012391
:1027FC007FE07B685B68022B07D1414B1B6803F0C1
:10280C000073002B09D1012373E03D4B1B6803F0CF
:10281C000203002B01D101236BE0394B5B6823F0E1
:10282C0003027B685B68364913434B60FFF72CFA55
:10283C00F8600AE0FFF728FA0246FB68D31A41F267
:10284C008832934201D9032353E02D4B5B6803F08C
:10285C000C027B685B689B009A42EBD1274B1B6890
:10286C0003F007033A689A4210D2244B1B6823F0FA
:10287C00070222493B6813430B60204B1B6803F093
:10288C0007033A689A4201D0012332E07B681B6847
:10289C0003F00403002B08D0194B5B6823F4E062AF
:1028AC007B68DB68164913434B607B681B6803F03D
:1028BC000803002B09D0124B5B6823F460527B6831
:1028CC001B69DB000E4913434B6000F021F80246F4
:1028DC000B4B5B681B0903F00F030A49CB5C22FA14
:1028EC0003F3094A1360094B1B681846FFF78AF972
:1028FC00002318461037BD4680BD00BF00200240A3
:10290C0000100240403200087C00002080000020B3
:10291C0080B487B000AF0023FB600023BB600023B2
:10292C007B6100237B6000233B611E4B5B68FB607B
:10293C00FB6803F00C03042B02D0082B03D027E018
:10294C00194B3B6127E0FB689B0C03F00F03174A04
:10295C00D35C7B60FB6803F48033002B10D0114BED
:10296C005B685B0C03F00103114AD35CBB607B68B2
:10297C000D4A02FB03F2BB68B2FBF3F37B6104E08C
:10298C007B680C4A02FB03F37B617B693B6102E0D1
:10299C00054B3B6100BF3B6918461C37BD4680BCEC
:1029AC00704700BF0010024000127A00503200083D
:1029BC006032000800093D0080B485B000AF78603B
:1029CC000A4B1B680A4AA2FB03235B0A7A6802FBC8
:1029DC0003F3FB6000BFFB685A1EFA60002BF9D1B1
:1029EC0000BF00BF1437BD4680BC70477C00002080
:1029FC00D34D621080B582B000AF78607B68002B3D
:102A0C0001D1012341E07B6893F83D30DBB2002B10
:102A1C0006D17B68002283F83C207868FEF71EFF05
:102A2C007B68022283F83D207B681A687B6804333C
:102A3C001946104600F06EFA7B68012283F8462096
:102A4C007B68012283F83E207B68012283F83F20BB
:102A5C007B68012283F840207B68012283F84120A7
:102A6C007B68012283F842207B68012283F8432093
:102A7C007B68012283F844207B68012283F845207F
:102A8C007B68012283F83D20002318460837BD4699
:102A9C0080BD000080B485B000AF78607B6893F88F
:102AAC003D30DBB2012B01D0012335E07B680222E3
:102ABC0083F83D207B681B68DA687B681B6842F0F2
:102ACC000102DA607B681B68164A934209D07B6866
:102ADC001B68B3F1804F04D07B681B68124A934289
:102AEC0011D17B681B689B6803F00703FB60FB68D4
:102AFC00062B10D07B681B681A687B681B6842F039
:102B0C0001021A6007E07B681B681A687B681B6807
:102B1C0042F001021A60002318461437BD4680BCEF
:102B2C00704700BF002C01400004004080B582B00B
:102B3C0000AF78607B681B681B6903F00203022BF3
:102B4C0022D17B681B68DB6803F00203022B1BD1CC
:102B5C007B681B686FF002021A617B6801221A778E
:102B6C007B681B689B6903F00303002B03D0786818
:102B7C0000F0B4F905E0786800F0A7F9786800F087
:102B8C00B6F97B6800221A777B681B681B6903F017
:102B9C000403042B22D17B681B68DB6803F004035D
:102BAC00042B1BD17B681B686FF004021A617B68D5
:102BBC0002221A777B681B689B6903F44073002B15
:102BCC0003D0786800F08AF905E0786800F07DF9A8
:102BDC00786800F08CF97B6800221A777B681B6898
:102BEC001B6903F00803082B22D17B681B68DB6888
:102BFC0003F00803082B1BD17B681B686FF00802DD
:102C0C001A617B6804221A777B681B68DB6903F006
:102C1C000303002B03D0786800F060F905E07868B6
:102C2C0000F053F9786800F062F97B6800221A779B
:102C3C007B681B681B6903F01003102B22D17B6887
:102C4C001B68DB6803F01003102B1BD17B681B681F
:102C5C006FF010021A617B6808221A777B681B6878
:102C6C00DB6903F44073002B03D0786800F036F96D
:102C7C0005E0786800F029F9786800F038F97B688D
:102C8C0000221A777B681B681B6903F00103012B78
:102C9C000ED17B681B68DB6803F00103012B07D1A5
:102CAC007B681B686FF001021A617868FEF7DAFB2B
:102CBC007B681B681B6903F08003802B0ED17B683B
:102CCC001B68DB6803F08003802B07D17B681B68D3
:102CDC006FF080021A61786800F06BFA7B681B68F1
:102CEC001B6903F04003402B0ED17B681B68DB682B
:102CFC0003F04003402B07D17B681B686FF0400248
:102D0C001A61786800F0FCF87B681B681B6903F09B
:102D1C002003202B0ED17B681B68DB6803F020039B
:102D2C00202B07D17B681B686FF020021A61786832
:102D3C0000F036FA00BF0837BD4680BD80B584B0C0
:102D4C0000AF786039600023FB737B6893F83C30EC
:102D5C00012B01D10223B4E07B68012283F83C20D3
:102D6C007B68022283F83D207B681B689B68BB60F4
:102D7C00BB6823F07703BB60BB6823F47F43BB6065
:102D8C007B681B68BA689A603B681B68B3F5005F88
:102D9C003ED0B3F5005F00F28780B3F5805F00F0A2
:102DAC008680B3F5805F7FD8702B1AD0702B7BD8C0
:102DBC00602B50D0602B77D8502B3CD0502B73D835
:102DCC00402B58D0402B6FD8302B64D0302B6BD885
:102DDC00202B60D0202B67D8002B5CD0102B5AD026
:102DEC0062E07B6818683B6899683B685A683B6886
:102DFC00DB6800F05EF97B681B689B68BB60BB6896
:102E0C0043F07703BB607B681B68BA689A604FE03D
:102E1C007B6818683B6899683B685A683B68DB6854
:102E2C0000F047F97B681B689A687B681B6842F462
:102E3C0080429A603CE07B6818683B6859683B6844
:102E4C00DB681A4600F0BEF87B681B6850211846F8
:102E5C0000F015F92CE07B6818683B6859683B68F2
:102E6C00DB681A4600F0DCF87B681B6860211846AA
:102E7C0000F005F91CE07B6818683B6859683B68F2
:102E8C00DB681A4600F09EF87B681B6840211846E8
:102E9C0000F0F5F80CE07B681A683B681B68194673
:102EAC00104600F0ECF803E00123FB7300E000BFD8
:102EBC007B68012283F83D207B68002283F83C204C
:102ECC00FB7B18461037BD4680BD80B483B000AF85
:102EDC00786000BF0C37BD4680BC704780B483B0AF
:102EEC0000AF786000BF0C37BD4680BC704780B423
:102EFC0083B000AF786000BF0C37BD4680BC704714
:102F0C0080B483B000AF786000BF0C37BD4680BC86
:102F1C007047000080B485B000AF786039607B6882
:102F2C001B68FB607B68254A934207D07B68B3F132
:102F3C00804F03D07B68224A934208D1FB6823F070
:102F4C007003FB603B685B68FA681343FB607B684B
:102F5C001A4A934207D07B68B3F1804F03D07B6849
:102F6C00174A934208D1FB6823F44073FB603B681B
:102F7C00DB68FA681343FB60FB6823F080023B6854
:102F8C005B691343FB607B68FA681A603B689A685C
:102F9C007B68DA623B681A687B689A627B68074ACE
:102FAC00934203D13B681A697B681A637B680122E0
:102FBC005A6100BF1437BD4680BC7047002C0140DD
:102FCC000004004080B487B000AFF860B9607A604C
:102FDC00FB681B6A7B61FB681B6A23F00102FB68C0
:102FEC001A62FB689B693B613B6923F0F0033B6110
:102FFC007B681B013A6913433B617B6923F00A032D
:10300C007B617A69BB6813437B61FB683A699A619F
:10301C00FB687A691A6200BF1C37BD4680BC7047DA
:10302C0080B487B000AFF860B9607A60FB681B6A47
:10303C007B61FB681B6A23F01002FB681A62FB6859
:10304C009B693B613B6923F470433B617B681B03C9
:10305C003A6913433B617B6923F0A0037B61BB6836
:10306C001B017A6913437B61FB683A699A61FB68BF
:10307C007A691A6200BF1C37BD4680BC704780B4A9
:10308C0085B000AF786039607B689B68FB60FB683B
:10309C0023F07003FB603A68FB68134343F00703AB
:1030AC00FB607B68FA689A6000BF1437BD4680BC31
:1030BC00704780B487B000AFF860B9607A603B604D
:1030CC00FB689B687B617B6923F47F437B613B6876
:1030DC001A027B681A43BB6813437A6913437B61FA
:1030EC00FB687A699A6000BF1C37BD4680BC70478C
:1030FC0080B485B000AF786039607B6893F83C3061
:10310C00012B01D1022341E07B68012283F83C2092
:10311C007B68022283F83D207B681B685B68FB6040
:10312C007B681B689B68BB60FB6823F07003FB60CB
:10313C003B681B68FA681343FB607B681B68FA6882
:10314C005A607B681B68144A934209D07B681B68E1
:10315C00B3F1804F04D07B681B68104A93420CD1AA
:10316C00BB6823F08003BB603B685B68BA681343A1
:10317C00BB607B681B68BA689A607B68012283F825
:10318C003D207B68002283F83C200023184614372E
:10319C00BD4680BC704700BF002C014000040040BD
:1031AC0080B483B000AF786000BF0C37BD4680BCE4
:1031BC00704780B483B000AF786000BF0C37BD4659
:1031CC0080BC704770B500260C4D0D4C641BA410D0
:1031DC00A64209D100F022F800260A4D0A4C641BC5
:1031EC00A410A64205D170BD55F8043B9847013692
:1031FC00EEE755F8043B98470136F2E764320008D5
:10320C006432000864320008683200080346024445
:10321C00934200D1704703F8011BF9E7F8B500BFE2
:10322C00F8BC08BC9E467047F8B500BFF8BC08BC9B
:04323C009E467047F3
:103240000000000000000000010203040607080956
:1032500002030405060708090A0B0C0D0E0F1010D7
:043260000102000067
:04326400310100082C
:043268000D0100084C
:10326C00010000000100000001000000010000004E
:10327C00010000000100000001000000010000003E
:10328C00010000000100000001000000010000002E
:10329C000B0000000F0000001300000017000000DE
:1032AC0005000000090000000500000003000000FC
:1032BC0002000000050000000300000002000000F6
:1032CC0003000000020000000500000003000000E5
:1032DC0002000000050000000A0000000024F400B9
:0832EC001000000001000000C9
:0400000508001B993B
:00000001FF
